S00E0000656570726F6D2E737265638E
S11300000C9434000C9451000C9451000C94510045
S11300100C9451000C9451000C9451000C94510018
S11300200C9451000C9451000C9451000C94510008
S11300300C9451000C9451000C9451000C945100F8
S11300400C9451000C9451000C942E010C9451000A
S11300500C9466010C9451000C9451000C945100C2
S11300600C9451000C94510011241FBECFEFD8E022
S1130070DEBFCDBF11E0A0E0B1E0EAECF9E002C0E0
S113008005900D92A232B107D9F721E0A2E2B1E0C6
S113009001C01D92A63EB207E1F70E94AF000C9486
S11300A0E3040C9400009C01211584E0380760F4FB
S11300B09FB3892F827091FDFBCF32BD21BDF89A89
S11300C090B5FB019083089582E008959C01211569
S11300D084E0380758F49FB3892F827091FDFBCFD9
S11300E032BD21BD60BDFA9AF99A089582E008955F
S11300F0FF920F931F93CF93DF931F92CDB7DEB779
S1130100811524E0920708F5F62E8C011982BE01B0
S11301106F5F7F4F0E94530081111AC089818F1530
S1130120B1F06F2DC8010E946600811111C0BE019B
S11301306F5F7F4FC8010E945300811109C081E0A5
S113014099819F1105C080E003C082E001C080E076
S11301500F90DF91CF911F910F91FF900895CF934E
S1130160DF93CDB7DEB763970FB6F894DEBF0FBE4B
S1130170CDBF82E1EFE0F1E0DE01119601900D9236
S11301808A95E1F71B8A8AB1807F8AB984B18F701E
S113019084B940E060E875E280E090E00E94750177
S11301A07894CE0101960E94AF01BE016D5E7F4F2F
S11301B080E690E00E94530002E211E06894EE248D
S11301C0E6F8F8013E2D11923A95E9F78B891F92D2
S11301D08F931F9285E28F930F2EF1E0CF2EF1E0E3
S11301E0DF2EF02DDF92CF921F930F930E94F9011F
S11301F0C8010E94AF01FB88F394F8011192EA94BC
S1130200E9F71F92FF921F928BE28F93DF92CF92B6
S11302101F930F930E94F901C8010E94AF016F2D33
S113022080E690E00E9478008BB18F708BB985B125
S1130230807F85B92BB19B89F0E19F9FC001112478
S1130240822B8BB985B19B8992959F70892B85B937
S11302500FB6F894DEBF0FBECDBFFFCF1F920F9233
S11302600FB60F9211248F939F93EF93FF93E09116
S11302706201F09163018091C600EA59FE4F8083C8
S1130280809164019091650101969093650180933A
S113029064018091620190916301019690936301DE
S11302A0809362018091620190916301803891058D
S11302B020F01092630110926201FF91EF919F91DF
S11302C08F910F900FBE0F901F9018951F920F9251
S11302D00FB60F9211248F9381E0809300018F91C8
S11302E00F900FBE0F901F901895442339F0E0EC47
S11302F0F0E0208122602083A8E001C0A0E1B0E00A
S11303009B01AC010E94DF019B01AC0160E074E23F
S113031084EF90E00E94BD01BA01A9014150510946
S113032061097109DB01CA0188279F70AA27BB27CD
S1130330892F9A2FAB2FBB278093C5004093C4000D
S1130340E1ECF0E08081886D808308959091000154
S11303509923E1F3109200018093C6000895CF938E
S1130360DF93EC0189910E94A60188818111FACF63
S11303700E94A601DF91CF910895A1E21A2EAA1B33
S1130380BB1BFD010DC0AA1FBB1FEE1FFF1FA21741
S1130390B307E407F50720F0A21BB30BE40BF50B3E
S11303A0661F771F881F991F1A9469F760957095C7
S11303B0809590959B01AC01BD01CF0108950E94E9
S11303C0EA01A59F900DB49F900DA49F800D911DEF
S11303D011240895A29FB001B39FC001A39F700D83
S11303E0811D1124911DB29F700D811D1124911D39
S11303F00895AEE0B0E0EFEFF1E00C94BA040D899B
S11304001E8986E08C831A8309838FEF9FE79E837E
S11304108D83AE01475E5F4F6F89788DCE01019663
S11304200E941B02EF81F885E00FF11F10822E96C7
S1130430E4E00C94D604ABE0B0E0E1E2F2E00C942A
S1130440AC046C017B018A01FC0117821682838152
S113045081FFCCC1CE0101963C01F6019381F701E5
S113046093FD859193FF81917F01882309F4BAC19B
S1130470853239F493FD859193FF81917F01853213
S113048029F4B60190E00E941204E7CF912C212CAC
S1130490312CFFE1F315D8F08B3279F038F4803247
S11304A079F08332A1F4232D20611DC08D3261F0D7
S11304B0803369F4232D216016C0832D8260382E89
S11304C0E32DE4603E2E2AC0F32DF8601DC037FCF6
S11304D02DC020ED280F2A3040F08E32B9F436FCBE
S11304E081C1232D2064322E19C036FE06C08AE055
S11304F0989E200D1124922E11C0EAE02E9E200D0C
S11305001124222EF32DF0623F2E08C08C3621F4E4
S1130510832D8068382E02C0883641F4F70193FD9C
S1130520859193FF81917F018111B3CF982F9F7D96
S11305309554933028F40C5F1F4F9FE399830DC0AB
S1130540833631F0833771F0833509F059C021C007
S1130550F801808189830E5F1F4F88248394912C36
S1130560530113C02801F2E04F0E511CF801A08082
S1130570B18036FE03C0692D70E002C06FEF7FEFDB
S1130580C5010E9407044C018201F32DFF773F2E21
S113059016C0280122E0420E511CF801A080B1804F
S11305A036FE03C0692D70E002C06FEF7FEFC50116
S11305B00E94FC034C01F32DF0683F2E820133FCB2
S11305C01BC0822D90E088169906B0F4B60180E233
S11305D090E00E9412042A94F4CFF50137FC85912F
S11305E037FE81915F01B60190E00E941204211050
S11305F02A9421E0821A91088114910471F7E8C0C9
S1130600843611F0893641F5F80137FE07C0608160
S11306107181828193810C5F1F4F08C06081718159
S1130620072E000C880B990B0E5F1F4FF32DFF76DE
S11306303F2E97FF09C090958095709561957F4FE7
S11306408F4F9F4FF0683F2E2AE030E0A3010E94B5
S11306504E04882E861845C0853731F4232D2F7E0D
S1130660B22E2AE030E025C0932D997FB92E8F3623
S1130670C1F018F4883579F0B5C0803719F088379F
S113068021F0B0C0E92FE061BE2EB4FE0DC0FB2DF9
S1130690F460BF2E09C034FE0AC0292F2660B22E92
S11306A006C028E030E005C020E130E002C020E1CF
S11306B032E0F801B7FE07C06081718182819381C5
S11306C00C5F1F4F06C06081718180E090E00E5F77
S11306D01F4FA3010E944E04882E8618FB2DFF771E
S11306E03F2E36FE0DC0232D2E7FA22E891458F4E2
S11306F034FE0BC032FC09C0832D8E7EA82E05C0AB
S1130700B82CA32C03C0B82C01C0B92CA4FE0FC074
S1130710FE01E80DF11D8081803321F49A2D997E2C
S1130720A92E09C0A2FE06C0B394B39404C08A2DB6
S1130730867809F0B394A3FC11C0A0FE06C0B214DD
S113074088F4280C922C9B180EC0B21460F4B601E5
S113075080E290E00E941204B394F7CFB21418F42C
S11307602B1802C0982C212CA4FE10C0B60180E3E3
S113077090E00E941204A2FE17C0A1FC03C088E707
S113078090E002C088E590E0B6010CC08A2D86781E
S113079059F0A1FE02C08BE201C080E2A7FC8DE209
S11307A0B60190E00E941204891438F4B60180E383
S11307B090E00E9412049A94F7CF8A94F301E80D12
S11307C0F11D8081B60190E00E9412048110F5CFE2
S11307D0222009F442CEB60180E290E00E94120485
S11307E02A94F6CFF6018681978102C08FEF9FEF9E
S11307F02B96E2E10C94C804FC0105906150704012
S11308000110D8F7809590958E0F9F1F0895FC01D5
S11308106150704001900110D8F7809590958E0F2B
S11308209F1F08950F931F93CF93DF93FB012381A1
S113083021FD03C08FEF9FEF2CC022FF16C046811D
S11308405781248135814217530744F4A081B18133
S11308509D012F5F3F4F318320838C932681378105
S11308602F5F3F4F3783268314C08B01EC01FB01BC
S11308700084F185E02D0995892BE1F6D8011696BF
S11308808D919C911797019617969C938E9316972A
S1130890CE01DF91CF911F910F910895FA01AA27FC
S11308A0283051F1203181F1E8946F936E7F6E5FAF
S11308B07F4F8F4F9F4FAF4FB1E03ED0B4E03CD05D
S11308C0670F781F891F9A1FA11D680F791F8A1F40
S11308D0911DA11D6A0F711D811D911DA11D20D0A7
S11308E009F468943F912AE0269F11243019305D61
S11308F03193DEF6CF010895462F4770405D419352
S1130900B3E00FD0C9F7F6CF462F4F70405D4A339E
S113091018F0495D31FD4052419302D0A9F7EACF66
S1130920B4E0A6959795879577956795BA95C9F795
S113093000976105710508959B01AC010A2E069488
S11309405795479537952795BA95C9F7620F731F41
S1130950841F951FA01D08952F923F924F925F927E
S11309606F927F928F929F92AF92BF92CF92DF92BB
S1130970EF92FF920F931F93CF93DF93CDB7DEB720
S1130980CA1BDB0B0FB6F894DEBF0FBECDBF0994B4
S11309902A88398848885F846E847D848C849B840B
S11309A0AA84B984C884DF80EE80FD800C811B8119
S11309B0AA81B981CE0FD11D0FB6F894DEBF0FBE48
S10D09C0CDBFED010895F894FFCFB8
S11309CA0125642076616C75652025640D0A000A88
S11309DA0D50726F6772616D2053746172740A0DDF
S10509EA000007
S9030000FC
